:020000040800F2
:10000000780A0020852A0008590800085B080008C3
:100010005F08000863080008670800080000000087
:100020000000000000000000000000006B08000855
:100030006D080008000000006F0800087108000843
:100040009F2A00089F2A00089F2A00089F2A00086C
:100050009F2A00089F2A00089F2A00089F2A00085C
:100060009F2A00089F2A00089F2A00089F2A00084C
:100070009F2A00089F2A00089F2A00089F2A00083C
:100080009F2A00089F2A00089F2A00089F2A00082C
:100090009F2A00089F2A00089F2A00089F2A00081C
:1000A0009F2A00089F2A00089F2A00089F2A00080C
:1000B0009F2A00089F2A00089F2A00089F2A0008FC
:1000C0009F2A00089F2A00089F2A00089F2A0008EC
:1000D0009F2A000899270008E92900089F2A00089C
:1000E0009F2A00089F2A00089F2A00089F2A0008CC
:1000F0009F2A00089F2A00089F2A00089F2A0008BC
:100100009F2A00089F2A00089F2A00089F2A0008AB
:10011000C32800089F2A0008E50700089F2A000856
:100120009F2A00089F2A00089F2A00089F2A00088B
:1001300000F002F800F05FF80AA090E8000C82449A
:100140008344AAF10107DA4501D100F054F8AFF277
:10015000090EBAE80F0013F0010F18BFFB1A43F0A5
:10016000010318472C5E00004C5E00000A444FF06B
:10017000000C10F8013B13F0070408BF10F8014B06
:100180001D1108BF10F8015B641E05D010F8016B4B
:10019000641E01F8016BF9D113F0080F1EBF10F8AF
:1001A000014BAD1C0C1B09D16D1E58BF01F801CBD2
:1001B000FAD505E014F8016B01F8016B6D1EF9D555
:1001C0009142D6D37047000000230024002500266A
:1001D000103A28BF78C1FBD8520728BF30C148BFAA
:1001E0000B607047642904F0AD81002070471FB593
:1001F0001FBD10B510BD04F09FFA1146FFF7F7FFC1
:1002000000F008F804F0BDFA03B4FFF7F2FF03BCF6
:1002100002F068FA86B04FF4A06003F0D7F902F05C
:10022000E5F94FF4E13002F06BFA4FF4E13002F0FF
:100230008DFB4FF4E13002F0F5FA02F041FA02F0E2
:1002400038F901F043FE01F092FC00F003FC02F0EB
:10025000B3F9472144F61F6001F082FF472144F6BD
:100260001F6001F025FF4FF4DC6001F06CFF4FF4DC
:10027000C86001F06CFFB4E2F548007800287AD03D
:10028000F448007801281FD1F3480078E0B1F34822
:100290004078AA2815D10120F14908604FF4FA707E
:1002A00002F0E1F90120EF49C1F884014FF47A70BE
:1002B00002F0D9F90020EA490860091D0860E74901
:1002C00048700020E4490870E248007802287DD197
:1002D000E5480468E548007850B9C820E44908605A
:1002E0000020E4490860E1480078401CDF490870BC
:1002F000E148007801284FD10020E049087040E033
:10030000DF48DE49097850F82100D9490968884258
:1003100005D1D548D949097850F8214035E0D84869
:10032000D649097850F82100D1490968884223DA72
:10033000D349D2480078401C51F82000CC490968C4
:10034000884219DDC849CD4A127851F822200B465F
:10035000CA490978491C53F82110501804F08BFC45
:10036000074600224FF0804304F0FEFA054604F0F1
:1003700053FC044609E031E2C0480078401CBF4904
:100380000870BE4800781528BADB00BF204601F08F
:10039000DEFE0020B8490870AF480078F0B1AF48E1
:1003A0004078AA2817D10120AD4908604FF4FA70AF
:1003B00002F059F90120AB49C1F884014FF47A7079
:1003C00002F051F90020A649086000E007E0091D8D
:1003D0000860A249487000209F49087000BF9D48EE
:1003E000007803287ED1A048006805904FF4DC60B7
:1003F00004909E48007850B9C8209D4908600021AB
:100400009C48016099480078401C984908709A48B7
:100410000078012867D100209849087049E0984980
:100420009648007851F8201091480068814206D122
:100430008D499248007851F8200005903DE09049A0
:100440008E48007851F8200089490968884222DAEC
:100450008B498A480078401C51F820108448006875
:10046000814218DD8049854A127851F822200B46D6
:1004700082490978491C53F82110501804F0FBFBFD
:10048000064600224FF0804304F06EFA044604F062
:10049000C3FB059011E07A48006D754909688842F0
:1004A00002DA7148006D059074480078401C734969
:1004B0000870724800781528B1DB00BF6D480068ED
:1004C000404204F0D8FB82464FF066326D4B04F098
:1004D00097F900226C4BCDE9000104F091F900225C
:1004E0006A4B01E03FE01AE0CDE9020104F03CFA7A
:1004F00080460022664B04F011FC06460022654B44
:1005000004F07EF9044604F087FB0490049801F09F
:100510001AFE059801F01BFE0020574908704E484E
:100520000078F8B14D484078AA2818D101214C48EC
:1005300001604FF4FA7002F096F801214948C0F8C2
:1005400084114FF47A7002F08EF80020444908605C
:1005500000214348001D01600020404948700020F0
:100560003D49087000BF3B48007804286FD13F48E0
:1005700000780028FAD14FF4C86001F0E8FD3A484D
:10058000D0F8009040F62D0401F054FF204601F011
:10059000DAFD08E001F04EFFE41E322002F063F8BD
:1005A000204601F0D0FD3C480068FD28F2D03A48D2
:1005B0000068FD280AD0384800689B380228E9DC2A
:1005C000354800689B3810F1020FE3DB01F03BFF78
:1005D00000202A4908706FE029482849097850F816
:1005E000210023490968884205D11F482349097819
:1005F00050F8219064E022482049097850F8210001
:100600001B490968884249DA1D491C480078401C8A
:1006100051F820001649096888423FDD1249174AFF
:10062000127851F822200B4614490978491C53F8D6
:100630002110501804F01FFB074600224FF08043A2
:1006400004F092F9054604F0E7FA814638E056E0F6
:1006500002000020C9000020E5020020E202002084
:1006600080012242000022426C000020CE000020C7
:10067000C0020020C4020020CD00002001000020A4
:1006800018000020666637400080564000806640B3
:1006900000409F4000407F40C80200206048006D3D
:1006A00060490968884202DA5F48D0F850905F4894
:1006B0000078401C5D4908705C48007815288BDB89
:1006C00000BF484601F043FDC82001F0CCFF0120E7
:1006D000574908604FF4FA7001F0C5FF01205549F1
:1006E000C1F884014FF47A7001F0BDFF0020504939
:1006F0000860091D086001204F49087000BF4F487D
:100700000078052850D1002400254B480078D8BB3C
:100710004FF4C86001F01BFD40F62D042EE020468A
:1007200001F011FD01F086FE45480068FD2821D04A
:1007300043480068B4281DDAE5B940F2555001F08D
:1007400006FD01203A4908604FF4FA7001F08BFF72
:1007500001203849C1F884010A2001F084FF0020FB
:10076000334908603349C1F884014FF4C86001F08F
:10077000EEFC6D1C322001F076FF0F3C40F29250EF
:100780008442CCDC044607E00DE0204601F0DBFCAF
:10079000322001F068FF0F3440F62D008442F4DB74
:1007A00001202549087000BF24480078062815D18B
:1007B0002448007890B124484078A0280BD140F21A
:1007C0006C7001F0C4FC40F2DC5001F04CFF4FF4BF
:1007D000C86001F0BCFC00201A49087000201B49C9
:1007E000087049E510B50121194803F056FEB0B173
:1007F00018480078401C17490870084600780228FD
:1008000006D100F04EFE00F0FBFF002011490870F9
:1008100001200E49087001210D4803F04FFE10BD64
:1008200018000020C00200206C0000200100002001
:100830008001224200002242CE000020C900002098
:10084000C8020020E5020020E20200200200002091
:100850000010004000000020704700BFFEE700BF0E
:10086000FEE700BFFEE700BFFEE770477047704736
:10087000704700000CB50020019000906C480068A3
:1008800040F480306A49086000BF6948006800F49D
:10089000003000900198401C0190009818B9019810
:1008A000B0F5A06FF1D16248006800F4003010B1DB
:1008B0000120009001E0002000900098012843D121
:1008C0005C48006840F010005A490860084600681B
:1008D00020F0030008600846006840F0020008604D
:1008E0005348406852494860084640684860084696
:1008F000406840F4806048600846406820F47C10FE
:1009000048600846406840F4E810486008460068BF
:1009100040F08070086000BF4548006800F000703B
:100920000028F9D04248406820F003004049486060
:100930000846406840F00200486000BF3C484068FC
:1009400000F00C000828F9D10CBD10B5FFF792FF9C
:1009500010BD10B53648006840F001003449086009
:1009600008464068344908403149486008460068F4
:10097000324908402E4908600846006820F480206B
:1009800008600846406820F4FE0048604FF41F00ED
:100990008860FFF7DAFF4FF000602949086010BD5A
:1009A00010B5002100200022214B5B6803F00C01F0
:1009B00021B1042906D0082928D107E0214B224C77
:1009C000236027E01F4B204C236023E0184B5B681B
:1009D00003F47010164B5B6803F48032022303EBC0
:1009E000904022B9194B4343174C23600DE0104B44
:1009F0005B6803F4003323B1144B4343124C236070
:100A000003E0104B4343104C236003E00D4B0E4CAE
:100A1000236000BF00BF064B5B68C3F303130C4C9D
:100A2000E15C094B1B68CB40074C236010BD000004
:100A300000100240002002400000FFF8FFFFF6FE19
:100A400008ED00E000127A000400002000093D00DB
:100A50000800002008B50121142002F04FFB0121FD
:100A6000764802F060F94FF48050ADF8000028207D
:100A70008DF803006946724802F084F82020ADF832
:100A8000000028208DF8030069466E4802F07AF8CD
:100A90004FF40050ADF8000028208DF8030069469F
:100AA000674802F06FF81020ADF8000028208DF89C
:100AB00003006946634802F065F80220ADF80000C3
:100AC00028208DF8030069465E4802F05BF840205C
:100AD000ADF8000028208DF803006946594802F05F
:100AE00051F808BD10B5044614B1012056490870EC
:100AF00055480078002852D04FF48051504802F0F9
:100B0000D4F8C8B120214F4802F0CFF8A0B14FF47B
:100B100000514B4802F0C9F870B11021494802F069
:100B2000C4F848B10221474802F0BFF820B1402183
:100B3000444802F0BAF888BB022001F094FD00207E
:100B4000414908704FF480513D4802F0AEF808B9B1
:100B5000012010BD20213B4802F0A7F808B902206F
:100B6000F7E74FF40051364802F09FF808B9032028
:100B7000EFE71021334802F098F808B90420E8E7BD
:100B80000221304802F091F808B90520E1E7402140
:100B90002C4802F08AF848BB0620DAE7FFE74FF45A
:100BA0008051274802F081F801281FD120212548D3
:100BB00002F07BF8012819D14103214802F075F8B1
:100BC000012813D110211F4802F06FF801280DD120
:100BD00002211C4802F069F8012807D14021194878
:100BE00002F063F8012801D1174908700020B0E72E
:100BF00010B50446072C1DD2DFE804F01C04080CD5
:100C00001014180011A003F05DFC14E010A003F014
:100C100059FC10E010A003F055FC0CE010A003F00C
:100C200051FC08E010A003F04DFC04E00FA003F01D
:100C300049FC00E000BF00BF10BD00000002300012
:100C40000010014000080140C00000205550000085
:100C5000444F574E000000004C4546540000000031
:100C600052494748540000004D49440053544152F2
:100C70005400000010B500221146142001F0BAF80B
:100C800001220021242001F0B5F8022200213420A5
:100C900001F0B0F803220021442001F0ABF8042257
:100CA0000021542001F0A6F81023FDA2022100200B
:100CB00001F037F8052202212A2001F09BF80622D4
:100CC00002213A2001F096F81023F7A20421002017
:100CD00001F027F8072204210F2001F08BF80822E9
:100CE00004211F2001F086F8092204212F2001F0A1
:100CF00081F80A2204213F2001F07CF81023EBA2A6
:100D00000621002001F00DF80B2206210F2001F032
:100D100071F80C2206211F2001F06CF80D2206212B
:100D20002F2001F067F80E2206213F2001F062F823
:100D300010BD1CB51023DEA20021192000F0F1FF28
:100D40000823DEA20221192000F0EBFF0823DCA219
:100D50000321192000F0E5FF0823DAA2042119205D
:100D600000F0DFFF0823D5A20521192000F0D9FFEC
:100D70000823D3A20621192000F0D3FF0823D1A213
:100D80000721192000F0CDFF08200221CDE9001035
:100D9000CD4804230268322001F020F90820022106
:100DA000CDE90010C848042303214268322001F035
:100DB00015F908200221CDE90010C3480423194683
:100DC0008268322001F00AF908200221CDE90010E2
:100DD000BE48042305210268322001F0FFF80820F4
:100DE0000221CDE90010B9480423062142683220CF
:100DF00001F0F4F808200221CDE90010B3480423E3
:100E000007218268322001F0E9F81CBD08B51023E3
:100E10007C220021172000F0E8FE10237C22022112
:100E2000172000F0E2FE10237C220421172000F09E
:100E3000DCFE10237C220621172000F0D6FE0823BA
:100E4000A3A20021084600F06CFF0823A1A2022102
:100E5000002000F066FF08239FA20321002000F07D
:100E600060FF08239DA20421002000F05AFF082300
:100E70009BA20521002000F054FF082399A206211F
:100E8000002000F04EFF082397A20721002000F069
:100E900048FF102395A20021322000F042FF1023CA
:100EA00094A20221262000F03CFF102392A20421EC
:100EB000262000F036FF102390A20621262000F005
:100EC00030FF1020032300908D4802210268442047
:100ED00000F0E3FE1020032300908A4804210268FA
:100EE000442000F0DAFE10200323009086480621FB
:100EF0000268442000F0D1FE08BD10B5102383A283
:100F00000021084600F00DFF102381A202210020DD
:100F100000F007FF10BD10B57E48007870B91023AF
:100F200020227D4801786E2000F05FFE10233C22D5
:100F30007A4801786E2000F058FE73E0754800781A
:100F400001280ED108232022734801786E2000F07A
:100F50004CFE08233C22714801786E2000F045FECB
:100F600060E06C48007802284ED16D4800786D49E9
:100F70000978884220D16A48007870B90823202275
:100F8000654801780C2000F030FE08233C226348BD
:100F900001780C2000F029FE44E0102320225E4856
:100FA00001786E2000F021FE10233C225B4801787E
:100FB0006E2000F01AFE35E059480078A8B10220F2
:100FC0005649087008232022534801780C2000F06D
:100FD0000CFE10233C22514801786E2000F005FEE3
:100FE0004E4800784C4908701CE0102320224A48E3
:100FF00001786E2000F0F9FD08233C224748017873
:101000000C2000F0F2FD0DE0102320224248017870
:101010006E2000F0EAFD10233C22404801786E204B
:1010200000F0E3FD10BD2DE9FC413F4800780628A3
:1010300034D2DFE800F00385B8EBFEFD3B480078D2
:1010400070B92149086804F087F80646384A394BD8
:1010500003F098FF044603F0A1FB1B4908600DE074
:101060001949086804F078F80646314A314B03F014
:10107000C7FB044603F092FB1349086008232EA225
:101080000221322000F04DFE08200221CDE900109F
:101090000D4804230268322000F0A0FF51E1000057
:1010A000312E504944000000322E0000332E000043
:1010B0005049442041646A75737400004B703A00D3
:1010C0004B693A004B643A000003002028030020DB
:1010D00046756E0031000000320000003300000051
:1010E00034000000350000003600000050617261DD
:1010F00000000000503A00004C3A0000413A000065
:10110000C8020020C0020020C4020020443A0000AF
:10111000543A0000C1000020C4000020C300002099
:10112000C5000020C6000020C7000020C800002025
:101130009A9999999999C93F202020202020000050
:10114000F848007870B9F849486804F005F8064690
:10115000F64AF74B03F016FF044603F01FFBF24973
:1011600048600DE0F049486803F0F6FF0646EF4A94
:10117000EF4B03F045FB044603F010FBEA494860DF
:101180000823AFF24C020321322000F0CAFD0820F0
:101190000221CDE90010E4480423032142683220F3
:1011A00000F01CFFCDE0DF48007870B9DE498868A8
:1011B00003F0D2FF0646DD4ADD4B03F0E3FE0446B2
:1011C00003F0ECFAD84988600DE0D749886803F04D
:1011D000C3FF0646D54AD64B03F012FB044603F084
:1011E000DDFAD14988600823AFF2B402042132202D
:1011F00000F097FD08200221CDE90010CA48042321
:1012000019468268322000F0E9FE9AE0C54800786D
:1012100080B9C849086803F09FFF0646C34AC44B1B
:1012200003F0B0FE044603F0B9FAC24908600FE0CB
:1012300054E020E0BF49086803F08EFF0646BB4A31
:10124000BB4B03F0DDFA044603F0A8FAB949086085
:101250000823AFF21C120521322000F062FD0820A5
:101260000221CDE90010B348042305210268322091
:1012700000F0B4FE65E0AB48007870B9AD4948684D
:1012800003F06AFF0646A94AA94B03F07BFE044619
:1012900003F084FAA74948600DE0A649486803F0C6
:1012A0005BFF0646A14AA24B03F0AAFA044603F0EC
:1012B00075FAA04948600823AFF284120621322053
:1012C00000F02FFD08200221CDE9001099480423E9
:1012D00006214268322000F081FE32E09148007819
:1012E00070B99449886803F037FF06468F4A904BDF
:1012F00003F048FE044603F051FA8E4988600DE081
:101300008C49886803F028FF0646884A884B03F01A
:1013100077FA044603F042FA864988600823AFF260
:10132000E8120721322000F0FCFC08200221CDE960
:1013300000108048042307218268322000F04EFE0E
:1013400000BF00BFBDE8FC817047704708B510239F
:1013500079A20221442000F0E4FC10200323009035
:10136000764802210268442000F097FC08BD08B5C9
:101370007348007830B1012822D002283ED00328DB
:101380001DD159E06748007828B96C480068401EB4
:101390006A49086004E069480068401C67490860C1
:1013A000102368A20021302000F0BBFC1020032392
:1013B0000090624800210268442000F06EFC6EE05C
:1013C0005848007828B95D480068401E5B490860AD
:1013D00004E05A480068401C58490860102356A28F
:1013E0000221442000F09DFC10200323009053486C
:1013F00002210268442000F050FC50E04948007887
:1014000028B952480068401E5049086004E04F481F
:101410000068401C4D49086010234AA20421442062
:1014200000F07FFC1020032300904848042102684C
:10143000442000F032FC32E03A48007828B94448B1
:101440000068401E4249086004E041480068401CB2
:101450003F49086010233BA20621442000F061FCB4
:101460003B480068002810DA102003230090384819
:10147000006842420621442000F00FFC10232D2278
:101480000621442000F0B1FB08E010200323009067
:101490002F4806210268442000F0FFFB00BF00BF78
:1014A00008BD10B50020FFF71DFB0446072C6ED2C7
:1014B000DFE804F06D0485E8F5F4F30025480078D2
:1014C000A8B925480078022811DB234800780628AF
:1014D0000DDC21480078022803D106201E4908703F
:1014E00004E01D480078801E1B49087086E11948F9
:1014F0000078012832D11848007802282EDB1648DF
:10150000007807282ADC14480078022803D1072035
:101510001149087004E010480078401E0E49087018
:101520006CE10000C8000020000300209A999999FE
:101530009999C93F2803002020202000C8020020DC
:10154000C70000202020202020000000C002002032
:10155000C4020020C1000020C3000020FE48007823
:1015600002282BD1FD480078072811DCFC480078C0
:1015700070B9FA480078022803D10720F7490870AB
:1015800004E0F6480078401EF449087036E134E182
:10159000F2480078062811DCF148007801280DD1C6
:1015A000EE480078022803D10620EC49087004E0D8
:1015B000EA480078801EE94908701FE11EE1E6480C
:1015C0000078A8B9E5480078022811DBE3480078E4
:1015D00006280DDCE1480078062803D10220DF4907
:1015E000087004E0DD480078801CDC49087005E1E3
:1015F000D9480078012815D1D8480078022811DB95
:10160000D648007807280DDCD4480078072803D195
:101610000220D249087004E0D0480078401CCF492D
:101620000870EBE0CC48007802282AD1CB4800783B
:10163000072810DCCA48007868B9C848007807282D
:1016400003D10220C549087004E0C4480078401C5A
:10165000C2490870D2E0C1480078062811DCC048B1
:10166000007801280DD1BD480078062803D102205A
:10167000BA49087004E0B9480078801CB74908707E
:10168000BCE0BBE0B4480078022809D1B548007836
:1016900030B90020B2490870B0E0A1E063E031E069
:1016A000AD480078012808D1AC480078801EAE49CA
:1016B00008700020AD490870A0E0A7480078022813
:1016C00013D1A848007801280FD1A449087800EB6D
:1016D000D0714910A44A11700020A4490870104626
:1016E0000178A3A002F0EEFE88E09B480078032872
:1016F00007D19A4800789C49087000209B490870DF
:101700007CE07BE094480078022806D19548007878
:1017100018B901209249087070E08F4800780128BC
:1017200008D18E480078801E8F49087001208F49AB
:10173000087063E088480078022813D1894800784F
:1017400001280FD18549087800EBD0714910864AED
:1017500011701046017886A002F0B4FE0120834982
:1017600008704BE04AE07C480078A0B97B480078DC
:10177000022802D1012078490870784800780428AE
:1017800002D102207449087074480078062802D1FA
:1017900003207149087070480078022810D1704801
:1017A000007801280CD16F48007818B901206D49E4
:1017B000087005E000206B49087001206D49087031
:1017C0006548007802280AD16548007838B963482E
:1017D0000078401E684908700020684908700DE0D4
:1017E0005D48007818B100205B49087004E00020D3
:1017F000614908706249087000E000BF00BF10BD79
:1018000010B55548007840BB534800785D490978C9
:10181000884209D000F0ABF9FFF72CFA02204F49BB
:1018200008700020584908704C48007856490978DB
:10183000884205D0FFF76FFB48480078524908708E
:101840004F4800785149097888427DD0FFF77CFDE8
:101850004B4800784D49087076E03F4800780128F1
:1018600025D13D48007847490978884209D000F0E1
:101870007EF9FFF75EFA02203849087000204249DD
:1018800008703648007840490978884205D0FFF74B
:1018900042FB324800783C49087033480078FF2802
:1018A00052D0FFF7C0FBFF202F4908704CE02A48B8
:1018B0000078022838D128480078324909788842CF
:1018C0000ED000F054F9FFF7A1FA02202349087066
:1018D00003202D4908700020214908702C49087008
:1018E0001E48007828490978884205D0FFF713FB85
:1018F0001A48007824490870194800782449097862
:10190000884205D0FFF707FB15480078204908708A
:1019100015480078FF2804D0FFF729FDFF20124961
:101920000870FFF713FD0FE00B48007815490978A0
:10193000884209D000F01BF90020084908700220F5
:1019400011490870FFF7D9FA0E4800780249097862
:10195000884222D000481DE0C1000020C3000020C2
:10196000C5000020CC000020C7000020C8000020D7
:1019700025640000CD000020C9000020CE0000201A
:10198000CA000020C2000020C4000020CB000020BC
:10199000C600002000780149087010BDC200002078
:1019A00010B54FF48071F94801F099F94FF40071C6
:1019B000F64801F094F94FF40071F44801F091F900
:1019C0004FF48071F14801F08CF910BD10B54FF45F
:1019D0008071EE4801F083F94FF40071EB4801F09B
:1019E00080F94FF40071E94801F079F910BD10B5A4
:1019F0004FF48071E54801F072F94FF48071E348CB
:101A000001F06FF910BD2DE9F04105462C464FF469
:101A10008071DE4801F065F900261CE0274607F0DA
:101A20008007802F04D1B900D84801F058F904E0AC
:101A30004FF40071D54801F054F96006040E4FF4DC
:101A40008071D24801F04BF94FF48071CF4801F01A
:101A500048F9701CC6B2082EE0DBBDE8F08110B575
:101A60000446FFF79DFF7820FFF7CDFFFFF7BFFF8C
:101A70000020FFF7C8FFFFF7BAFF2046FFF7C3FFBC
:101A8000FFF7B5FFFFF7A2FF10BD10B50446FFF743
:101A900087FF7820FFF7B7FFFFF7A9FF4020FFF788
:101AA000B2FFFFF7A4FF2046FFF7ADFFFFF79FFF50
:101AB000FFF78CFF10BD70B504460D461DB1E0B2B6
:101AC000FFF7E3FF02E0E0B2FFF7C9FF70BD70B5BA
:101AD0000646002418E004F1B0000021FFF7EBFFF8
:101AE00000210846FFF7E7FF00211020FFF7E3FF82
:101AF000002505E001213046FFF7DDFF681CC5B277
:101B0000802DF7DB601CC4B2082CE4DB70BD70B51F
:101B100004460D4605F1B0000021FFF7CCFF10216F
:101B200041EA14100021FFF7C6FF04F00F00002166
:101B3000FFF7C1FF70BD10B500218D20FFF7BBFF7F
:101B400000211420FFF7B7FF0021AF20FFF7B3FFFC
:101B500010BD10B500218D20FFF7ADFF0021102032
:101B6000FFF7A9FF0021AE20FFF7A5FF10BD70B55C
:101B7000002418E004F1B0000021FFF79CFF0021D1
:101B80000846FFF798FF00211020FFF794FF00257B
:101B900005E001210020FFF78EFF681CC5B2802DF3
:101BA000F7DB601CC4B2082CE4DB70BD70B5002408
:101BB00018E004F1B0000021FFF77DFF0021084686
:101BC000FFF779FF00211020FFF775FF002505E0E2
:101BD00001210846FFF76FFF681CC5B2802DF7DBB7
:101BE000601CC4B2082CE4DB70BD2DE9F047074649
:101BF0000E469046994600250024A8F12000C5B263
:101C00007F2F02DD0027B01CC6B2B9F1100F24D11E
:101C100031463846FFF77BFF002408E004EB05114E
:101C20005B4A505C0121FFF746FF601CC4B2082CE0
:101C3000F4DB701CC1B23846FFF769FF002409E0ED
:101C400004EB05110831524A505C0121FFF733FFC4
:101C5000601CC4B2082CF3DB12E031463846FFF7B3
:101C600056FF00240AE005EB45014A4A02EB410118
:101C7000085D0121FFF71FFF601CC4B2062CF2DBD8
:101C8000BDE8F08710B50246012000E050430B1E6E
:101C9000A1F10104E1B2F9D110BD2DE9FF5F0646C3
:101CA00090461D46DDF838904FF0000BDA46B9F14A
:101CB000080F02D14FF0060A01E04FF0080A002495
:101CC0002BE0281B401EC1B20A20FFF7DBFFB8FB48
:101CD000F0F00A21B0FBF1F201FB1207BBF1000F9B
:101CE0000ED1681EA0420BDD47B90AFB0461C8B2E1
:101CF0004B4620220199FFF778FF0CE04FF0010BD3
:101D000007F13001CAB20AFB0461C8B24B4601991F
:101D1000FFF76BFF00BF601CC4B2AC42D1DBBDE873
:101D2000FF9F2DE9F0470546884616469946B9F1CA
:101D3000100F01D1082700E00627002410E0325DD3
:101D40004B4641462846FFF750FFE819C5B2782DAB
:101D500004DD002508F1020000F0FF08601CC4B299
:101D6000305D0028EBD1BDE8F0872DE9FC478046C7
:101D70000F46144699460425002C02DA2D208DF8D2
:101D80000000201E08DB014607E00000000C0140B7
:101D90008A5800085656000841420C460EE00A20B8
:101DA00094FBF0F100FB11403030C2B22846691EAE
:101DB000CDB20DF800200A2094FBF0F40A2CEEDAE4
:101DC00004F13000C0B20DF805002E4600208DF859
:101DD0000500012504E020200DF80500681CC5B2AF
:101DE000B542F8DBF9B210236A464046FFF799FF87
:101DF000BDE8FC872DE9F04180460E4615460027D8
:101E000031464046FFF783FE00240AE0A54A02EB74
:101E10004511085D0121FFF74EFE781CC7B2601C1A
:101E2000C4B2102CF2DB701CC1B24046FFF76FFE4B
:101E300000240CE06900491C9A4A02EB0111085D7C
:101E40000121FFF738FE781CC7B2601CC4B2102C09
:101E5000F0DBBDE8F0812DE9F05F06460F469046C5
:101E60001C46DDF828A04FF0000BE11704EB517180
:101E7000C910A4EBC10131B92046E11704EB51713F
:101E8000C1F3C70506E02046E11704EB5171C91004
:101E9000491CCDB23D4615E029463046FFF737FED6
:101EA000B1460BE059460BF1010B1AF80100012174
:101EB000FFF701FE09F1010000F0FF09C145F1DB68
:101EC000681CC5B2A542E7DBBDE8F09F08B501215B
:101ED000082001F013F94FF44070ADF80000102015
:101EE0008DF8030003208DF8020069466E4800F06B
:101EF00049FE4FF440716C4800F0F1FEC82000F03C
:101F0000B2FB0021AE20FFF7D6FD00210846FFF707
:101F1000D2FD00211020FFF7CEFD00214020FFF769
:101F2000CAFD0021B020FFF7C6FD00218120FFF788
:101F3000C2FD0021FF20FFF7BEFD0021A120FFF719
:101F4000BAFD0021A620FFF7B6FD0021A820FFF76B
:101F5000B2FD00213F20FFF7AEFD0021C820FFF7B2
:101F6000AAFD0021D320FFF7A6FD00210846FFF7B8
:101F7000A2FD0021D520FFF79EFD00218020FFF764
:101F80009AFD0021D820FFF796FD00210520FFF7DC
:101F900092FD0021D920FFF78EFD0021F120FFF7EF
:101FA0008AFD0021DA20FFF786FD00211220FFF7CD
:101FB00082FD0021DB20FFF77EFD00213020FFF7AE
:101FC0007AFD00218D20FFF776FD00211420FFF718
:101FD00072FD0021AF20FFF76EFD08BD2DE9FF4F18
:101FE00081B0044615469846DDE90EA6082E01D1BB
:101FF000062000E0082007460021284603F07AFA70
:1020000001D22B2000E02D20834633465A4620463D
:102010000299FFF7EAFDE019C4B20021284603F057
:1020200069F901D285F00045284603F02FF983466F
:1020300043465A46009620460299FFF72EFE07FBBC
:102040000840C4B233462E2220460299FFF7CDFD48
:10205000E019C4B2284603F019F9009003F032F9F0
:102060008346294603F077FA814611E00F49484636
:1020700003F074F98146484603F008F983460123CA
:102080005A46009620460299FFF707FEE019C4B2AF
:10209000BAF10000AAF1010101F0FF0AE6D105B092
:1020A000BDE8F08FD0000020000C0140000020416E
:1020B00030B589B005460C460121042001F02BF80B
:1020C0000121082001F01AF818208DF82300C02003
:1020D000ADF8200003208DF8220008A91E4800F06A
:1020E00051FDADF81850ADF814400020ADF81600C1
:1020F000ADF81A0005A9194801F0AAFB6020ADF857
:1021000004000020ADF80C00ADF80A000120ADF885
:10211000060001A9114801F0D8FB01A90F4801F000
:1021200016FC08210D4802F01FF808210B4802F0A8
:1021300024F80121094801F0E7FF0121074801F0D7
:10214000E3FE09B030BD054A343210807047034ABF
:102150003832108070470000000C01400008004039
:102160007FB505460C460121102000F0D4FFADF8E4
:102170000850ADF8044001A90F4801F069FB362072
:102180008DF8000002208DF801008DF8020001207A
:102190008DF80300684601F01EFA0121064802F09E
:1021A00079F901221146044801F0C9FE01210248D3
:1021B00001F0AAFE7FBD00000010004000209449FD
:1021C000086048608860C86008610021904A916199
:1021D000D1611146086248628E4908604860886093
:1021E000C860086100218B4A9161D1611146086283
:1021F000486270472DE9F04F87B0854AD168106971
:1022000003F0B4F98449086084480078012810D1AB
:102210000846006802F0A0FF04460D467C49D1E95B
:1022200006633246294602F0EBFA794AC2E9060112
:1022300003E00021764A9161D1617549D1E90641F7
:102240000022774B204602F067FE05D20021744839
:102250006F4AC2E906100DE06D480022714BD0E9CB
:102260000641204602F01EFD04D200216D48684A56
:10227000C2E906106648016A6748006803F076F90B
:10228000694908606448006861490862886866496D
:10229000096803F063F8044602F05EFFCDE902012D
:1022A0005B49486802F058FF80465948D0E9066308
:1022B0003246404602F032FD04460D465449086855
:1022C0005549096803F04AF8064602F045FF824680
:1022D00022462B4602F094FACDE90001DDE9022303
:1022E00002F08EFACDE9040102F096FC07B0BDE8D9
:1022F000F08F2DE9F04F87B0464AD168106903F09E
:1023000035F94A49086045480078012810D1084647
:10231000006802F021FF04460D463E49D1E90663FC
:102320003246294602F06CFA3A4AC2E9060103E055
:102330000021384A9161D1613649D1E90641002234
:10234000374B204602F0E8FD05D200213448314ADF
:10235000C2E906100DE02F480022324BD0E90641B9
:10236000204602F09FFC04D200212E48294AC2E9EF
:1023700006102848016A2D48006803F0F7F82C4938
:1023800008602A4800682349086288682849096863
:1023900002F0E4FF044602F0DFFECDE902011D4930
:1023A000486802F0D9FE80461A48D0E906633246F2
:1023B000404602F0B3FC04460D46164908681B4926
:1023C000096802F0CBFF064602F0C6FE82462246AE
:1023D0002B4602F015FACDE90001DDE9022302F0F7
:1023E0000FFACDE9040102F017FC07B0BDE8F08F49
:1023F000074B186059609A6070470549086170473B
:10240000044908617047034B186059609A6070472F
:102410000003002028030020B0020020CA00002092
:1024200000C0724000C072C0B4020020B802002098
:10243000BC020020544800785349497840EA012002
:10244000524908607047504880784F49C97840EA3F
:1024500001201E384E490860704710B5FFF7EAFFAB
:10246000FFF7C8FE04464B4800682044494908600D
:102470000846006840F29351884202DA084645490E
:1024800008604448006840F62D01884202DD084695
:10249000404908603F480068FFF755FE10BDB0F5A1
:1024A0007A7F01DD4FF47A7010F57A7F00DA3A48CE
:1024B000704708B510208DF803000420ADF8000027
:1024C00003208DF802006946344800F05BFB08BD2C
:1024D00070B50446B4F57A7F10D03148B0FBF4F5FE
:1024E000012030490860284600F099F800202E4964
:1024F000C1F88801284600F092F803E04FF47A70A2
:1025000000F08DF870BD10B5044601202549086023
:10251000204600F0A8F800202349C1F88801204691
:1025200000F0A1F810BD70B5C6B01C221F493FA82D
:1025300002F044F87C221E4920A802F03FF87C22D9
:102540001C4901A802F03AF80A26002418E00025E8
:1025500008E020A9095D3FAA32F81100FFF7B8FF93
:10256000681C85B201A8005D20A9095D3FAA32F868
:1025700011104843B0FBF6F0A842EAD8601C84B2C0
:10258000792CE4D346B070BDDA020020C8020020E6
:10259000C0020020CC02002018FCFFFF0010014008
:1025A00020A1070088012242000022427C5E000830
:1025B000985E0008145F000808B510208DF803002D
:1025C0000320ADF800008DF802006946044800F0D1
:1025D000D9FA0020034908600349C1F8840108BD05
:1025E00000100140800122420000224210B56FF02D
:1025F000040001F03AF82E4800682E49B0FBF1F0D3
:102600002D4908700846007800EB4001C1EBC0106E
:102610004FF6FF7101EAC0002849088010BD01464D
:10262000254A12784A434FF0E0235A6100229A610A
:102630001A46126942F001021A6100BF4FF0E0220F
:10264000106900F001021AB100F48032002AF5D0BE
:102650004FF0E022126922F001024FF0E0231A61EC
:1026600000229A6170470146144A12884A434FF08B
:10267000E0235A6100229A611A46126942F001026F
:102680001A6100BF4FF0E022106900F001021AB198
:1026900000F48032002AF5D04FF0E022126922F0D7
:1026A00001024FF0E0231A6100229A617047000096
:1026B0000400002000127A00D0020020D202002084
:1026C00010B50121084600F019FD0121044800F071
:1026D0002AFB10BD30BF704772B6704762B67047B4
:1026E0000002300000BF704700BF4A4A128802F063
:1026F0004002002AF9D0C2B2464B1B1D1A80704717
:1027000010B586B00446012144F2040000F0F6FC46
:102710004FF40070ADF8140003208DF81600182057
:102720008DF8170005A93C4800F02CFA4FF48060A2
:10273000ADF8140004208DF8170005A9364800F004
:1027400021FA25208DF8000003208DF801008DF876
:10275000020001208DF80300684600F03CFF019460
:102760000020ADF80800ADF80A00ADF80C00ADF897
:1027700010000C20ADF80E0001A9264800F065FD00
:10278000012240F22551234800F0F7FD01212148A4
:1027900000F0E7FD06B010BD10B540F225511D4810
:1027A00000F0D0FE10B31B4800F04CFEC4B21B4832
:1027B000008800F40040C8B91848008800F4804040
:1027C00060B10A2C03D000201449088020E013488F
:1027D000008840F400401149088019E00D2C06D112
:1027E0000E48008840F480400C49088010E00B48F7
:1027F0000088C0F30D000A490C5408480088401CAA
:102800000649088008460088C72801DD00200880A6
:1028100010BD00000038014000080140D80200202F
:102820005003002010B586B004460121C80400F012
:1028300072FC0121102000F061FC4FF48060ADF8C3
:10284000140003208DF8160018208DF8170005A934
:10285000374800F097F94FF40060ADF814000420F9
:102860008DF8170005A9324800F08CF934208DF856
:10287000000003208DF801008DF8020001208DF882
:102880000300684600F0A7FE01940020ADF80800A0
:10289000ADF80A00ADF80C00ADF810000C20ADF852
:1028A0000E0001A9234800F0D0FC012240F225517E
:1028B000204800F062FD01211E4800F052FD06B0E4
:1028C00010BD10B540F225511A4800F03BFE70B320
:1028D0001848001D0088C4B21748007868B9174826
:1028E0000078F22806D116480078C82802D10120C5
:1028F000114908700020134908700F48007801281A
:102900000FD111480F49097844540E480078401CF3
:102910000C49087008460078042802D100200649B6
:10292000087006480078064908700448047010BD15
:1029300000100140004C0040DE020020E0020020B8
:10294000E1020020DF020020DA02002010B586B08C
:1029500004460121480400F0DEFB0121042000F0C0
:10296000CDFB0420ADF8140003208DF816001820CC
:102970008DF8170005A93B4800F004F90820ADF8D0
:10298000140004208DF8170005A9364800F0FAF865
:1029900026208DF8000002208DF8010003208DF81C
:1029A000020001208DF80300684600F014FE019437
:1029B0000020ADF80800ADF80A00ADF80C00ADF845
:1029C00010000C20ADF80E0001A9274800F03DFCD6
:1029D000012240F22551244800F0CFFC0121224879
:1029E00000F0BFFC06B010BD10B540F225511E48E6
:1029F00000F0A8FD002833D01B48001D0088C4B299
:102A00001A48007878B91A480078F22806D119488F
:102A10000078C82802D10120144908700020164906
:102A200008701649087011480078012812D114481E
:102A300011490978445410480078401C0E49087028
:102A400008460078022805D10020084908700120B6
:102A50000A4908700648007806490870044804705E
:102A600010BD00000008014000440040E4020020C6
:102A7000E7020020E8020020E6020020E502002034
:102A8000E20200200948804709480047FEE7FEE7C8
:102A9000FEE7FEE7FEE7FEE7FEE7FEE7FEE7FEE70E
:102AA00004480549054A064B7047000053090008D1
:102AB0003101000878040020780A00207806002000
:102AC0007806002010B50446CC48844208D1012184
:102AD000042000F02DFB0021042000F029FB46E03B
:102AE000C748844208D10121082000F021FB0021C1
:102AF000082000F01DFB3AE0C248844208D10121C1
:102B0000102000F015FB0021102000F011FB2EE03A
:102B1000BD48844208D10121202000F009FB00219A
:102B2000202000F005FB22E0B848844208D10121B2
:102B3000402000F0FDFA0021402000F0F9FA16E0F4
:102B4000B348844208D10121802000F0F1FA00212D
:102B5000802000F0EDFA0AE0AE48844207D101215E
:102B6000801500F0E5FA0021A01500F0E1FA10BD93
:102B700010B50121084600F0DBFA0021012000F029
:102B8000D7FA10BD2DE9F0410246002500260020AD
:102B900000230024002791F803C00CF00F0591F8E2
:102BA00003C00CF0100CBCF1000F03D091F802C070
:102BB0004CEA050591F800C0BCF1000F31D0146853
:102BC00000202BE04FF0010C0CFA00F3B1F800C02C
:102BD0000CEA03069E4220D183004FF00F0C0CFA42
:102BE00003F7BC4305FA03FC4CEA040491F803C064
:102BF000BCF1280F06D14FF0010C0CFA00FCC2F812
:102C000014C00AE091F803C0BCF1480F05D14FF0A1
:102C1000010C0CFA00FCC2F810C0401C0828D1D3EB
:102C20001460B1F800C0BCF1FF0F34DD546800201F
:102C30002EE000F1080C4FF0010808FA0CF3B1F88F
:102C400000C00CEA03069E4221D183004FF00F0C16
:102C50000CFA03F7BC4305FA03FC4CEA040491F8B0
:102C600003C0BCF1280F05D100F1080C08FA0CF8DC
:102C7000C2F8148091F803C0BCF1480F07D100F1ED
:102C8000080C4FF0010808FA0CF8C2F81080401C3C
:102C90000828CED35460BDE8F0814FF6FF71018063
:102CA000022181700421C1707047024600209368A0
:102CB0000B400BB1012000E00020704701468868FE
:102CC00080B2704702460020D3680B400BB1012050
:102CD00000E0002070470146C86880B2704701617B
:102CE0007047416170470AB1016100E0416170477E
:102CF000C16070474FF480320A4382618161826112
:102D000082698269704702460020434B18684FF67B
:102D10008073184040EA021008433F4B1860704728
:102D20003E49C8617047F0B50A46002300240021DF
:102D3000002500F00046B6F1004F02D1364EF16991
:102D400001E0354E7168C0F3034583B200F44016CC
:102D5000B6F5401F08D121F070612F4E766826F03D
:102D600070662D4F7E6012E000F48016B6F5801F6D
:102D700006D1032606FA05F4A14341F0706106E08E
:102D8000460D360103FA06F6B14341F0706122B1F7
:102D9000460D360103FA06F6314300F00046B6F15F
:102DA000004F02D11C4EF16101E01B4E7160F0BD7D
:102DB00030B500228B071C0F0F2303FA04F2164BC9
:102DC00008338C1053F824309343134C08348D107F
:102DD00044F8253023468C1053F824308C07240FF8
:102DE00000FA04F423430C4C08348D1044F82530C9
:102DF00030BD0A49DC31086070470000000801401E
:102E0000000C014000100140001401400018014076
:102E1000001C014000200140000001400000204251
:102E2000DF48006840F00100DD490860084640685E
:102E3000DC490840DA49486008460068DA49084039
:102E4000D74908600846006820F4802008600846DA
:102E5000406820F4FE0048604FF41F00886070470F
:102E6000CF49096821F48031CD4A116011460968C3
:102E700021F480211160B0F5803F03D0B0F5802FA0
:102E80000ED106E0C649096841F48031C44A116098
:102E900007E0C349096841F4A021C14A116000E07C
:102EA00000BF00BF704710B501460022002300207C
:102EB0004A11012A02D1BA4C236806E0022A02D143
:102EC000B74C236A01E0B64C636A01F01F0201248B
:102ED00094401C400CB1012000E0002010BD38B52A
:102EE000002000900024002500BF3120FFF7DBFF09
:102EF00005460098401C00900098B0F5A06F01D0E6
:102F0000002DF2D03120FFF7CEFF08B1012400E000
:102F10000024204638BD01460020A14A106820F058
:102F2000F80040EAC10010607047A049086070478F
:102F3000024600209A4B586820F47C1042EA0103B4
:102F40001843974B58607047984908667047014688
:102F50000020934A506820F00300084350607047F7
:102F60008F48406800F00C007047014600208C4AF2
:102F7000506820F0F0000843506070470146002080
:102F8000874A506820F4E06008435060704701466B
:102F90000020834A506820F4605040EAC10050602D
:102FA000704729B17E4A527A02437D4B5A7204E03F
:102FB0007B4A527A82437A4B5A7270477B49D831A6
:102FC0000860704701460020754A506820F4404070
:102FD0000843506070470021714A20321170704AD6
:102FE00082F82010012802D004280AD104E001212F
:102FF0006B4A2032117005E00521694A20321170B8
:1030000000E000BF00BF704769490860704764492D
:10301000096A0143624A1162704765494439086090
:10302000704730B500210022002400235C4D6D68FC
:1030300005F00C0121B1042905D0082923D105E0B0
:103040005C4D056022E05B4D05601FE0544D6D68EE
:1030500005F47012524D6D6805F48034022505EBBD
:1030600092421CB9544D554305600BE04C4D6D68C0
:1030700005F400351DB1504D5543056002E04D4D3E
:103080005543056002E04B4D056000BF00BF444D55
:103090006D6805F0F0010909484D6B5C0568DD407D
:1030A00045603F4D6D6805F4E061090A434D6B5C76
:1030B0004568DD4085603A4D6D6805F46051C90A88
:1030C0003E4D6B5C4568DD40C560354D6D6805F46F
:1030D0004041890B3A4D6B5CC568B5FBF3F5056162
:1030E00030BD29B12E4A526902432D4B5A6104E08A
:1030F0002B4A526982432A4B5A61704729B1284AA8
:1031000092690243264B9A6104E0254A9269824300
:10311000234B9A61704729B1214AD2690243204B5F
:10312000DA6104E01E4AD26982431D4BDA617047BE
:1031300029B11B4AD2680243194BDA6004E0184AED
:10314000D2688243164BDA60704729B1144A12697B
:103150000243134B1A6104E0114A12698243104B77
:103160001A61704712494039086070470F49C864B6
:1031700070470B49C87170470948406A40F0807039
:1031800007494862704701460020054A92680A4094
:103190000AB1012000E000207047014988727047A1
:1031A000001002400000FFF8FFFFF6FE0000424260
:1031B0008004424200127A0000093D00E90200202A
:1031C000F902002010B50446FB48844209D10121D0
:1031D0008803FFF7ADFF00214FF48040FFF7A8FF01
:1031E00032E0F648844209D101214804FFF7ADFFDF
:1031F00000214FF40030FFF7A8FF25E0F04884429B
:1032000009D101218804FFF7A0FF00214FF480209D
:10321000FFF79BFF18E0EB48844209D10121C80465
:10322000FFF793FF00214FF40020FFF78EFF0BE024
:10323000E548844208D101210805FFF786FF0021F7
:103240004FF48010FFF781FF10BD2DE9F04786B0E5
:1032500005460E460024A24600BFA1460027B089BD
:1032600000B100BF2F462C8A4CF6FF700440F08856
:1032700004432C82AC894EF6F3100440B0883189A7
:103280000843718908430443AC81AC8A4FF6FF4080
:103290000440B0890443AC8201A8FFF7C2FEC648CF
:1032A000874202D1DDF810A001E0DDF80CA0A8896A
:1032B00000F4004040B10AEBCA0000EB0A1031688C
:1032C0004900B0FBF1F807E00AEBCA0000EB0A1076
:1032D00031688900B0FBF1F86420B8FBF0F004011C
:1032E0002009642101FB1089A88900F4004040B145
:1032F000322000EBC900B0FBF1F000F007000443FE
:1033000008E0322000EB09106421B0FBF1F000F07E
:103310000F0004432C8106B0BDE8F0874FF416512E
:10332000016000218180C18001810C214181002147
:103330008181704710B502460020108A4FF2FF03CA
:1033400018400B884C8823438C882343CC88234324
:103350001843108210BD0021018041808180C1800E
:10336000704721B1828942F40052828104E082894F
:103370004DF6FF731A4082817047F0B50346002472
:1033800000260025002040F66A17B94200D100BF90
:103390001846C1F3421401F01F06012707FA06F58B
:1033A000012C01D10C3004E0022C01D1103000E0DE
:1033B00014301AB107682F43076002E00768AF4373
:1033C0000760F0BD1AB1838A0B43838202E0838ACF
:1033D0008B4383827047028A4FF6F0731A40028251
:1033E000028A0A430282704782894FF2FF731A40B1
:1033F000828182890A438281704721B1828942F0A9
:103400000202828104E082894FF6FD731A408281B4
:103410007047028A4FF6DF731A400282028A0A431B
:103420000282704721B1028A42F48042028204E0A3
:10343000028A4BF6FF731A4002827047C1F30802FA
:103440008280704701468888C0F3080070478189F0
:1034500041F0010181817047028BD2B20283028B5D
:1034600042EA012202837047028B02F47F42028308
:10347000028B0A430283704721B1828A42F0200204
:10348000828204E0828A4FF6DF731A40828270479C
:1034900021B1828A42F01002828204E0828A4FF6D1
:1034A000EF731A408282704721B1828A42F008028B
:1034B000828204E0828A4FF6F7731A408282704754
:1034C00021B1828942F40042828103E08289C2F301
:1034D0000E028281704721B1828A42F400628282A8
:1034E00004E0828A4FF2FF731A4082827047828A18
:1034F0004FF6FB731A408282828A0A4382827047A7
:1035000021B1828A42F00202828204E0828A4FF66E
:10351000FD731A408282704702460020B1F5007F99
:1035200000D100BF13880B400BB1012000E0002048
:10353000704701F40072B2F5007F00D100BFCA43AA
:103540000280704770B50246002400230025002049
:1035500040F66A16B14200D100BFC1F3421501F036
:103560001F03012606FA03F3012D02D19689334089
:1035700006E0022D02D1168A334001E0968A3340DC
:103580000C12012606FA04F41688344013B10CB16B
:10359000012000E0002070BD10B50022002340F69D
:1035A0006A14A14200D100BF0A1201249440A3B2C0
:1035B000DC43048010BD000000380140004400409E
:1035C00000480040004C0040005000403149014399
:1035D000314A1160704770B5002100230F22C47872
:1035E00004B32D4C246804F4E064C4F5E064210ABB
:1035F000C1F10403CA40447804FA03F1847814400A
:1036000021430901254C0678A155047804F01F05D3
:103610000124AC4005786D11AD0005F1E025C5F839
:10362000004109E0047804F01F050124AC401C4D62
:103630000678761145F8264070BD1A4A0A400243C2
:10364000154B1B1F1A60704739B1134A121D1268BF
:103650000243114B1B1D1A6006E00F4A121D12682F
:1036600082430D4B1B1D1A607047042808D14FF090
:10367000E021096941F004014FF0E022116107E007
:103680004FF0E021096921F004014FF0E0221161BF
:10369000704700000000FA050CED00E000E400E0D7
:1036A00080E100E080FFFF1F10B50446FE48844221
:1036B00008D10121C014FFF73BFD0021E014FFF702
:1036C00037FDC4E0B4F1804F08D101210846FFF76F
:1036D0003CFD00210120FFF738FDB8E0F3488442AB
:1036E00008D101210220FFF730FD00210220FFF761
:1036F0002CFDACE0EE48844208D101210420FFF704
:1037000024FD00210420FFF720FDA0E0E9488442C9
:1037100008D101210820FFF718FD00210820FFF73C
:1037200014FD94E0E448844208D101211020FFF701
:103730000CFD00211020FFF708FD88E0DF488442DF
:1037400008D101212020FFF700FD00212020FFF7F4
:10375000FCFC7CE0DA48844208D101214014FFF7E8
:10376000E7FC00216014FFF7E3FC70E0D5488442D9
:1037700009D10121C804FFF7DBFC00214FF4002030
:10378000FFF7D6FC63E0D048844209D10121080547
:10379000FFF7CEFC00214FF48010FFF7C9FC56E084
:1037A000CA48844209D101214805FFF7C1FC002124
:1037B0004FF40010FFF7BCFC49E0C548844208D133
:1037C00001214020FFF7C1FC00214020FFF7BDFC94
:1037D0003DE0C048844208D101218020FFF7B5FCBC
:1037E00000218020FFF7B1FC31E0BB48844208D1C2
:1037F00001218015FFF7A9FC0021A015FFF7A5FC0A
:1038000025E0B648844209D101210804FFF790FC65
:1038100000214FF48030FFF78BFC18E0B048844261
:1038200009D101214804FFF783FC00214FF4003047
:10383000FFF77EFC0BE0AB48844208D101218804ED
:10384000FFF776FC00214FF48020FFF771FC10BDDC
:1038500000220288944B98420ED0994B98420BD08C
:10386000B0F1804F08D0914B984205D0904B9842D0
:1038700002D0904B984204D14FF68F731A404B8878
:103880001A438D4B984207D08C4B984204D04FF688
:10389000FF431A40CB881A4302808B8883850B88AC
:1038A0000385814B98420BD0854B984208D08B4BB7
:1038B000984205D08A4B984202D08A4B984201D157
:1038C0000B7A038601238382704770B5002400229F
:1038D0000023058C4FF6FE7635400584028C8388E4
:1038E000048B4FF68F752C40B51E2C400D882C4351
:1038F000751E2A400D892A434D882A436A4DA842E5
:103900000BD06F4DA84208D0744DA84205D0744D1D
:10391000A84202D0734DA84213D14FF6F7752A4042
:103920004D892A434FF6FB752A408D882A434FF66E
:10393000FF652B404FF6FF552B408D892B43CD89DA
:103940002B4383800483CD888586028470BD70B547
:10395000002400220023058C4FF6EF7635400584C5
:10396000028C8388048B48F6FF752C404FF6FF4588
:103970002C400D884FF6FF7606EA05252C434FF6BE
:10398000DF752A400D8906EA05152A434D8806EAA7
:1039900005152A43444DA84202D0494DA8421DD1E5
:1039A0004FF67F752A404D894FF6FF7606EA0515DA
:1039B0002A434FF6BF752A408D8806EA05152A432B
:1039C0004FF6FF352B404FF2FF752B408D8906EAED
:1039D00085052B43CD8906EA85052B438380048327
:1039E000CD880587028470BD70B5002400220023B5
:1039F000058C4FF6FF6635400584028C8388848BE6
:103A00004FF68F752C404FF6FC752C400D882C43DB
:103A10004FF6FF552A400D894FF6FF7606EA052539
:103A20002A434D8806EA05252A431F4DA84202D0A5
:103A3000234DA8421DD14FF2FF752A404D894FF604
:103A4000FF7606EA05252A434FF6FF352A408D8882
:103A500006EA05252A434EF6FF752B404DF6FF7505
:103A60002B408D8906EA05152B43CD8906EA0515FD
:103A70002B4383808483CD888587028470BD70B595
:103A8000002200230024058C4EF6FF763540058485
:103A9000038C8488828B48F6FF752A404FF6FF45D9
:103AA0002A400D8820E00000002C01400004004066
:103AB00000080040000C00400010004000140040CE
:103AC00000340140004C01400050014000540140CE
:103AD00000180040001C0040002000400040014051
:103AE00000440140004801404FF6FF7606EA0525F4
:103AF0002A434DF6FF752B400D8906EA05352B4309
:103B00004D8806EA05352B43FA4DA84202D0FA4DFE
:103B1000A84208D14BF6FF752C408D894FF6FF76F1
:103B200006EA85152C4384808283CD88A0F8405016
:103B3000038470BD828B4FF2FF331A408283828BE5
:103B40004FF6FF7303EA01231A4382837047F0B5EF
:103B50000C461546002200210026078C4EF6FF7CFD
:103B600007EA0C070784828B018C4FF6FF7707EA80
:103B7000043640F6FF473A404FF6FF7707EA05273D
:103B80003A434FF6FF7707EA03373A43D94FB84233
:103B90000ED0D94FB8420BD0B0F1804F08D0D74FDC
:103BA000B84205D0D64FB84202D0D64FB84206D15F
:103BB0004DF6FF77394046F48057394305E047F624
:103BC000FF57394044F48057394382830184F0BD64
:103BD000828B4FF6F3731A408283828B0A4382836F
:103BE0007047F0B50C461546002200210026078CD0
:103BF0004FF6FF6C07EA0C070784828B018C4FF6A7
:103C0000FF7707EA04264FF60C773A404FF6FF7726
:103C100007EA03172F433A43B64FB8420ED0B64FC8
:103C2000B8420BD0B0F1804F08D0B44FB84205D0A5
:103C3000B34FB84202D0B34FB84206D14FF6FF5748
:103C4000394046F48077394305E04FF2FF57394059
:103C500044F48077394382830184F0BD028B4FF2B4
:103C6000FF331A400283028B4FF6FF7303EA0123EE
:103C70001A4302837047F0B50C4615460022002116
:103C80000026078C4FF6EF7C07EA0C070784028BAF
:103C9000018C4FF6FF7707EA041640F6FF473A40DB
:103CA0004FF6FF7707EA03373A434FF6FF7707EA05
:103CB00005273A438F4FB8420ED08F4FB8420BD0F2
:103CC000B0F1804F08D08D4FB84205D08C4FB8422C
:103CD00002D08C4FB84206D14FF6DF77394046F01C
:103CE0001007394305E04FF65F77394044F010077D
:103CF000394302830184F0BD028B4FF6F3731A40FF
:103D00000283028B0A4302837047F0B50C461546C6
:103D100000220021068C4FF6FE773E400684028B7F
:103D2000018C4FF60C7632407E1C06EA03162E43B9
:103D30003243704EB0420ED06F4EB0420BD0B0F155
:103D4000804F08D06D4EB04205D06D4EB04202D0CB
:103D50006C4EB04206D14FF6FD76314044F001067C
:103D6000314305E04FF6F576314044F0010631432A
:103D700002830184F0BD70B505460C465D4885425E
:103D80000ED05D4885420BD0B5F1804F08D05B481E
:103D9000854205D05A48854202D05A48854200D112
:103DA00000E000BF208850B92389A2886188284696
:103DB000FFF7ABFFE1882846FFF79EFF25E020884C
:103DC00004280AD12389A28861882846FFF753FF77
:103DD000E1882846FFF742FF17E0208808280AD12B
:103DE0002389A28861882846FFF7FBFEE1882846E0
:103DF000FFF7EEFE09E02389A28861882846FFF7D5
:103E0000A6FEE1882846FFF795FE70BD2DE9F0413A
:103E100005460C4600260127608808B9022600E006
:103E20000026A088012801D1022700E00127208870
:103E3000A0B92389A28861882846FFF766FFE18838
:103E40002846FFF759FF23893A4631462846FFF7AF
:103E500012FFE1882846FFF701FF13E02389A288BB
:103E600061882846FFF707FFE1882846FFF7F6FE3E
:103E700023893A4631462846FFF747FFE18828461E
:103E8000FFF73AFFBDE8F0810A884B881A438B8818
:103E90001A43CB881A430B891A434B891A438B89DF
:103EA0001A43A0F8442070474FF6FF71818000212B
:103EB0000180C180418001727047002101804180F2
:103EC0008180C180018141818181C1817047002150
:103ED00001804180012181800021C18001817047E2
:103EE0000021018041808180C180018141818181E7
:103EF00070470000002C01400034014000040040E5
:103F000000080040000C004021B1028842F001028C
:103F1000028004E002884FF6FE731A400280704768
:103F200031B1B0F8442042F40042A0F8442005E04A
:103F3000B0F84420C2F30E02A0F8442070471AB132
:103F400083890B43838102E083898B43838170479C
:103F50008182704741EA0203A0F8483070471AB1E5
:103F600083890B43838102E083898B43838170477C
:103F700001894FF6F8721140018170470A4600210D
:103F800001894FF68F73194011430181704730B595
:103F900004460D4629462046FFF7F0FF208940F0F1
:103FA0000700208130BD2DE9F04104460D4616463C
:103FB0001F46602D06D13B46012231462046FFF7C1
:103FC0005AFE05E03B46012231462046FFF79DFEA2
:103FD00029462046FFF7D2FF208940F007002081C4
:103FE000BDE8F08130B50C4600210189C9B24FF619
:103FF000FF7505EA0325154325432943018130BD9B
:104000002DE9F04105460E461746984600244346E2
:104010003A4631462846FFF7E5FF2C894FF6F870FF
:10402000044044F007044FF68F70044044F07004DD
:104030002C81BDE8F081F0B504460D4616461F46BA
:104040003B46324629462046FFF7CCFF208940F404
:1040500080402081F0BD0185828270470A460021A0
:1040600001884FF68F731940114301807047F0B5F6
:104070000C4615461E460021002200230189028BB2
:10408000038C4FF6F877394021434FF6FC473A400E
:1040900040F201173A434FF6DD773B404FF6FF778A
:1040A00007EA06172F433B43018102830384F0BDD7
:1040B0000A460021018B4FF68F731940114301838B
:1040C00070470A460021018B48F6FF7319404FF6EE
:1040D000FF7303EA02231943018370470A46002154
:1040E000818B4FF68F7319401143818370470A46C5
:1040F0000021818B48F6FF7319404FF6FF7303EAE6
:10410000022319438183704721B1028842F0800263
:10411000028004E002884FF67F731A4002807047E5
:1041200021B1828842F00402828004E082884FF646
:10413000FB731A408280704721B1828842F00802E6
:10414000828004E082884FF6F7731A4082807047BD
:1041500021B1828842F00102828004E082884FF619
:10416000FE731A40828070470A460021018B4FF689
:10417000F77319401143018370470A460021018BF0
:104180004FF2FF7319404FF6FF7303EA02231943FE
:10419000018370470A460021818B4FF6F77319405F
:1041A0001143818370470A460021818B4FF2FF73D0
:1041B00019404FF6FF7303EA0223194381837047C6
:1041C0000A460021018B4FF6FB731940114301830E
:1041D00070470A460021018B4FF6FF3319404FF616
:1041E000FF7303EA02231943018370470A46002143
:1041F000818B4FF6FB7319401143818370470A4648
:104200000021818B4FF6FF3319404FF6FF7303EA0D
:1042100002231943818370470A460021018B4FF620
:104220007F7319401143018370470A460021018BB7
:10423000C1F30E014FF6FF7303EA02231943018312
:1042400070470A460021818B4FF67F731940114356
:10425000818370470A460021818BC1F30E014FF61E
:10426000FF7303EA02231943818370470A46002142
:10427000018C4FF6FD7319401143018470470A46C3
:104280000021018C4FF6F7731940114301847047E8
:104290000A460021018C4FF6DF7319404FF6FF7379
:1042A00003EA02131943018470470A460021018C76
:1042B0004FF67F7319404FF6FF7303EA0213194359
:1042C000018470470A460021018C4FF6FF531940C4
:1042D0004FF6FF7303EA02231943018470470A462D
:1042E0000021018C4FF2FF7319404FF6FF7303EA70
:1042F00002231943018470470A460021018C4DF6C0
:10430000FF7319404FF6FF7303EA02331943018428
:10431000704730B5002301248C40A3B2048C9C4329
:104320000484048C02FA01F5ADB22C43048430BD40
:1043300030B5002304248C40A3B2048C9C43048435
:10434000048C02FA01F5ADB22C43048430BD70B583
:104350000346002000241846183001258D40ACB2D9
:104360001D8CA5431D8409B1082909D100EB61000A
:10437000056825F0700505600568154305600EE0C9
:104380000D1FC5F34E052844056825F4E04505607A
:1043900005684FF6FF7606EA02263543056070BDD4
:1043A00021B1028842F00202028004E002884FF646
:1043B000FD731A400280704721B1028842F0040266
:1043C000028004E002884FF6FB731A4002807047B7
:1043D00021B1828842F08002828004E082884FF618
:1043E0007F731A408280704702884FF6F7731A4035
:1043F000028002880A430280704782884FF68F73DA
:104400001A40828082880A438280704702894FF670
:10441000F8731A40028102890A43028170470289B7
:104420004FF67F731A40028102890A430281704766
:104430008184704781857047818670470187704706
:1044400081877047A0F84010704702884FF6FF43FD
:104450001A40028002880A43028070470146888E13
:1044600070470146088F70470146888F70470146A4
:10447000B1F8400070470146888C70470146088DAE
:10448000704702460020138A0B400BB1012000E068
:1044900000207047CA430282704730B502460020B0
:1044A00000230024158A05EA0103958905EA010421
:1044B00013B10CB1012000E0002030BDCA430282DC
:1044C000704770470FB4044910B503AA029800F072
:1044D00005F910BC5DF814FBD40200202DE9F04171
:1044E0000E460446002020622046E168884730B32B
:1044F000252805D0D4E901219047206A401CF2E725
:10450000E168204600278847050018D0A5F1410042
:10451000192802D820354FF4006732462946204634
:104520002760FBF75FFE40B1012804D0F61D26F09E
:1045300007060836D8E7361DD6E72846DAE7206AA8
:10454000BDE8F0812DE9F041064600241068752988
:10455000314616A510D0AFF30080002802DA4042A1
:1045600013A507E031688A0701D512A502E04907C3
:1045700004D511A5012401E0AFF3008000210A2237
:1045800006F1240709E0B0FBF2FCB0FBF2F302FBFA
:104590001C00303078541846491C0028F3D12346BB
:1045A0002A463046BDE8F04100F03EB80000000069
:1045B0002D0000002B0000002000000010B5203A64
:1045C000C0F00B80B1E81850203AA0E81850B1E8CC
:1045D0001850A0E81850BFF4F5AF5FEA027C24BF82
:1045E000B1E81850A0E8185044BF18C918C0BDE879
:1045F00010405FEA827C24BF51F8043B40F8043B42
:1046000008BF7047D20728BF31F8023B48BF11F8F6
:10461000012B28BF20F8023B48BF00F8012B704750
:1046200070477047704770472DE9F0470D4699462F
:104630009246044600F124080168880604D5E06922
:1046400021F01001216000E00120A84201DD471B9C
:1046500000E00027A1697A1902EB0900081AA0619D
:104660002078C00602D42046AFF30080002608E080
:10467000D4E901211AF806009047206A401C761CF4
:1046800020624E45F4DB2078C0060AD52046AFF301
:10469000008006E0D4E9012130209047206A401CC8
:1046A0002062381EA7F10107F4DC07E0D4E90121FC
:1046B00018F805009047206A401C2062281EA5F1CA
:1046C0000105F3DC2046AFF300802078000602D518
:1046D0000220BDE8F0870120FBE70000074B70B522
:1046E0000D467B4400F011F80446284600F020F8FF
:1046F00010B14FF0FF3070BD204670BD03E0FFFFEA
:1047000001694A1C02610878704700B58FB0CDE995
:1047100001310021059105497944CDE90310114685
:104720006846FFF7DBFE0FB000BD0000E5FFFFFFAE
:10473000007B00F080007047754600F02BF8AE4615
:1047400005006946534620F00700854618B020B59D
:10475000FEF7A6F9BDE820404FF000064FF0000735
:104760004FF000084FF0000B21F00701AC46ACE819
:10477000C009ACE8C009ACE8C009ACE8C0098D4686
:10478000704710B50446AFF300802046BDE81040E6
:10479000FBF73ABD004870471804002021F00042A2
:1047A000A2F16052B2F5801F01F0004328BFD2F1A0
:1047B0007F6C0BD95FEA001C43EAC20242EB5070E7
:1047C00018BF704728BF20F001007047B2F5801F66
:1047D000BCBF184670474FEA410C1CF5001F02D2BF
:1047E000084600F082BE70B500F042FB0000008970
:1047F000FFF7F6BF4FF00040A0F5800070470000C3
:1048000010B591EA030F48BF83F0004300F1C28363
:10481000841A71EB030C05D2121943EB0C03001B35
:1048200061EB0C01DFF824E14FEA1154A4EB135CB7
:104830001EEA430F18BF9EEA445F73D023EA0E03BB
:10484000DCF1200E21EA045143F4801332D322FA22
:104850000CFE10EB0E0023FA0CFE41EB0E01CCF126
:10486000200E03FA0EFE10EB0E0051F10001B1F51F
:10487000801FCCF1200E32D201EB045112FA0EF25D
:10488000BDE8104058BF7047401C38BF5FEA420285
:1048900018BF7047002814BF20F0010041F100014B
:1048A0004FEA410313F5001F38BF7047A1F1C04123
:1048B00000F02CBB012A43EB0302ACF1200CDCF12D
:1048C0001F0E32BF4FF0000E23FA0CF310EB030063
:1048D00041EB0451B4EB115FD0D0A1EB045101F5D1
:1048E000801149085FEA300001EB04510ED350F10A
:1048F000000038BF12FA0EFE08D1BDE81040C9E72B
:10490000401C38BF5FEA4202CAD1C3E7BDE810408D
:104910004FEA410313F5001F38BF7047A1F1C041B2
:1049200000F0F4BA9EEA445F08D011EA5E0FBDE8D9
:10493000104004BF01F0004100207047BDE8104066
:1049400070B500F095FA00BF64FBBE3E0000E0FFCA
:10495000491058BFC1F140415B1058BFC3F14043FB
:104960008B42EFF3008070472DE9C04130B4DFF88F
:10497000A0C23CEA111418BF3CEA131400F0EC800A
:1049800081EA03051CEA111444EAD57418BF1CEA35
:10499000131500F0C780A4EB05044FF0004545EA6D
:1049A000C12145EAC32341EA505143EA525304F17D
:1049B0007F74994204F500344FEAC0204FEAC222C6
:1049C00008BF904200F09C804FEA13650FF240163A
:1049D000765D4FEA134506FB05F7C7F1807706FBC6
:1049E00007F74FEAD737A7FB03687642C8F5803848
:1049F000A7FB06CE38BFA8F1010807FB08E64FF079
:104A0000000EA6FB028CE6FB03CEDCF1000CCEF11F
:104A1000004E38BFAEF1010EA6FB0C584FF0000758
:104A20004FF00005E6FB0E87A1FB08C6A0FB07CEF2
:104A300016EB0E0645F10005E1FB076515F1E04EAA
:104A40007EBFA4F580345FEA46066D4116F180070B
:104A500045F100054FEA17274FEA066647EA056762
:104A6000A6F1DE46B6F1805F4FEA15251FD938461C
:104A700024F0010C05EBC471BCF1FE6F01EB0C11CD
:104A800002D8F0BCBDE8008124425CBF01F5801E65
:104A90009EEAC47F02D4F0BCBDE80081244238D431
:104AA000F0BCA1F1C041BDE8004100F02FBA4FEACF
:104AB000D22242EA43524FEAD323A7FB02864FEAAF
:104AC000D02040EA415007FB03661EEA0E0F4FEA72
:104AD000D12105FB026658BFA6EB0056B6EB005687
:104AE0004FEA520E4EEAC37E18EB0E0E56EB530EF3
:104AF000BDD518EB02085E417F1C55F10005B6E7F5
:104B00004FF480154FF000074FF000064FF00008FB
:104B1000ADE7F0BC4FF0000001F1C04101F00041F1
:104B2000BDE8008111EA0C1F0CEA131500D00CE05F
:104B300013EA0C1F00F025804FF00000F0BC81EA62
:104B4000030101F00041BDE80081F0BCBDE8004177
:104B500081EA030100F0DAB9F0BCBDE8004170B5AC
:104B600000F086F9097EFC3E00F007B881EA0301F7
:104B70004FF0000001F00041704781EA030100F0AE
:104B8000C5B9F0BCBDE800414FF0000021497047B5
:104B9000FFFDFBF9F7F5F4F2F0EEEDEBE9E8E6E402
:104BA000E3E1E0DEDDDBDAD8D7D5D4D3D1D0CFCD89
:104BB000CCCBCAC8C7C6C5C4C2C1C0BFBEBDBCBBC2
:104BC000BAB9B8B7B6B5B4B3B2B1B0AFAEADACABBD
:104BD000AAA9A8A8A7A6A5A4A3A3A2A1A09F9F9E97
:104BE0009D9C9C9B9A999998979796959594939349
:104BF000929191908F8F8E8E8D8C8C8B8B8A8989E0
:104C00008888878786858584848383828281818062
:104C10000000FF070000F87F4FEA41034FEA5353BB
:104C2000A3F58063D3F11E03C8BFD3F1210C0CDDC3
:104C30004FF0004242EAC12242EA505232FA03FCEB
:104C40008CEAE17CACEBE1707047102BC4BF002014
:104C5000704703F5787CBCF1FF3F04D06FF0004251
:104C600082EA2100704770B500F002F94992248071
:104C700000207047F2E710F0004248BF4042B0FA0F
:104C800080F310FA03F10AD0C3F11D0303F580632A
:104C90004FEA415002EB035202EBD12170474FF033
:104CA0000000704751EA030C17D41CF5801F58BF51
:104CB000BCF5801F00F10680994218BF704708BFFD
:104CC0009042704707D711F5801F58BF13F5801F1A
:104CD00019D499427047894270471CF5801F08D546
:104CE000BCF5801FF7D58B4218BF704708BF8242C2
:104CF00070474FF4001C1CEB410F38BF1CEB430FF7
:104D000001D28B42704770B500F0B2F8922449008E
:104D10004FF000514FF08053FFF71ABEDFF848C143
:104D200070B51CEA111E1EBF1CEA13159EEA0C0F7B
:104D300095EA0C0F00F06F8081EA030423EA4C131C
:104D40004EEAD47E21EA4C1141F4801143F48013E1
:104D5000AE44A1FB024CA0FB0365AEF17F7E361989
:104D600055EB0C05A1FB034C4CF10003A0FB021C0E
:104D700016EB0C06654153F10003094218BF46F0DB
:104D8000010613F4007F0BD14FEA03314FEA0530DF
:104D9000340341EA155140EA16506FF003020AE06D
:104DA0004FEAC3214FEAC520F40241EA555140EAD7
:104DB00056506FF0020202EB2E4201EB025585EADB
:104DC000CE710AD05FEA440C18BF24F0004450F1C1
:104DD000000041F1000120EAD47040F2FE7C6245FF
:104DE00000D270BDA84214BF4FF080444FF0404441
:104DF000002E08BF0024BEF1806FA8BFA1F1C04102
:104E0000BDE8704080F282804FF0000001F1C041A7
:104E100001F0004170479EEA0C0F0CEA131518BF11
:104E200095EA0C0F06D04FF0000081EA030E0EF059
:104E3000004170BD00F01CF88900013E00F007B889
:104E400000F009B84FEA430C5FEA5C5C08D081EAE5
:104E5000030100F05BB84FEA410C5FEA5C5CF6D1FD
:104E60004FF00000014970470000FF070000F87F85
:104E70000EF1020E2EF0030E5EF8046B364205D4DE
:104E8000012A43EB030515F5001F12D8012841EB59
:104E9000010C1CF5001F0CD80ED14FEAD17C15F582
:104EA000001F0CEB4C0C0CF1020C08BF4CEBD37C3C
:104EB00004E04FF0080C01E04FEAD37C0CEB4C050A
:104EC00026FA05F606F00706B6F1040C06D20EEB3C
:104ED000860CBDE870404CF0010C6047DFE80CF038
:104EE000090B02024FF000414FF00000A1F5002134
:104EF00070BD19461046012851EB010418BFD4F5C6
:104F0000001484BF002001F0004170BD0808A0F526
:104F100000114FEA3101704753EA010C17D41CF518
:104F2000801F58BFBCF5801F00F106808B4218BF60
:104F3000704708BF8242704707D713F5801F58BFDC
:104F400011F5801F19D48B4270479B4270471CF5A6
:104F5000801F08D5BCF5801FF7D5994218BF704750
:104F600008BF904270474FF4001C1CEB430F38BF42
:104F70001CEB410F01D2994270470FB40CBC03BC2B
:104F8000FFF7C1BE10B591EA030F48BF83F000439D
:104F90003FF53EAC841A71EB030C07D212198CF06A
:104FA000004C43EB0C03001B61EB0C01DFF8A4E1A8
:104FB0004FEA1154A4EB135C1EEA430F18BF9EEA9C
:104FC000445F00F0B08023EA6E03524221EA0451AC
:104FD000C3EB6E0338BF5B1EDCF1200E25D322FA33
:104FE0000CFE10EB0E0043FA0CFE41EB0E01CCF16F
:104FF000200E03FA0EFE10EB0E0051F10001CCF171
:10500000200E29D412FA0EF201EB0451BDE8104033
:1050100058BF7047401C1CBFB2F1004F70470028BA
:105020000CBF491C20F00100704712EB020E43EB4D
:10503000030218BF4FF0010E4EEA4202ACF1200C01
:10504000DCF11E0E54D943FA0CFE10EB0E0051F1A8
:10505000FF31CCF11E0ED5D50EF1010E12FA0EFE67
:10506000404141EB010101EB445C5FEA5C5C10D91B
:1050700010EBDE7001EB045138BFBEF1004FBDE80C
:10508000104018BF704700280CBF491C20F00100D9
:10509000704730D24FEAD42C11F5001124F400648B
:1050A0001BD0B1FA81F20B3AA41AA41ED2F120034C
:1050B000914030FA03F31943904001EBCC71002C7E
:1050C00001EB0451BDE81040A8BF704701F1C04199
:1050D0004FF0000001F000417047B0FA80F310FA81
:1050E00003F100D110BDE41A173C4805C90AE4E7F2
:1050F00001EB045110BD491001EB0451BDE8104013
:105100004FEA300002E04FF0000170474A0008BF4C
:105110000042F8D0B2F5001F28BF704701F00041EF
:105120004FF0000070479EEA445F07D011EA5E0F1F
:10513000BDE8104004BF002100207047BDE81040CA
:1051400070B5FFF795FE00BF40DFF63E83F00041EB
:10515000104670470000E0FF43004FEAD30C4FEACF
:105160003C0C43401FBF40070CF1605113F0FE4F51
:1051700070471CF0006F03D100200CF00041704715
:105180000CF0004343EA507010B540EACC0000F048
:1051900066F900BF000000924FEA0001FFF7B6BEBB
:1051A0004FF000414FF00000A1F5002170470000D2
:1051B00090EA010F48BF81F0004100F1DE81421A00
:1051C0003CBF801A89184FEAD0524FF07F4C1CEA3E
:1051D000410FA2EBD15318BF9CEA026F00F03B8055
:1051E0004FF0004C4CEA00204CEA012121FA03FC6C
:1051F00010EB0C0C1ED202F1FF325FEA1C2040EBD8
:10520000C25038BF70471CF07F0F4FEA400C18BFE8
:10521000BCF17F4F38BF7047C3F12003994008BFEE
:1052200020F00100BCF17F4F38BF7047A0F1C040B3
:1052300000F05BB94FEA3C00000A40EBC25028BFC7
:105240001CF0FF0F4FEA400CE6D018BFBCF17F4FB7
:1052500038BF7047EAE79CEA026F05D010EA5C0F9E
:1052600008BF00F00040704710B500F0F8F800BF2C
:1052700064FBBE3E401058BFC0F14040491058BFCB
:10528000C1F140418142EFF30080704741000B0EB5
:10529000D3F19E0208D950F400034FEA032323FA06
:1052A00002F048BF4042704710B500F0D8F800BF88
:1052B00049922480002070476FF0004282EA20006B
:1052C0007047000010F0004148BF4042B0FA80F340
:1052D00010FA03F2C3F19D030BD051EAC35101EB65
:1052E0001220530638BF704700F1010008BF20F0BC
:1052F0000100704750EA010C00F113801CF5000F0B
:1053000058BFBCF5000F01D48842704707D710F58D
:10531000000F58BF11F5000F15D48842704789421D
:1053200070471CF5000F04D5BCF5000FF7D581427E
:1053300070474FF0807C1CEB400F38BF1CEB410FD7
:1053400001D28142704710B500F089F892244900DB
:105350004FF000504FF08051FFF78CBF4FF47F0C9F
:105360001CEAD0121EBF1CEAD11392EA0C0F93EA7A
:105370000C0F00F0478090EA010F48BF42F48072A2
:105380004FF0004C4CEA00204CEA012102EB0302F2
:10539000A0FB0113A2F50002002918BF43F001038E
:1053A0005B0028BF4FEA330342EB22425FEA132C33
:1053B0004CEBC2502EBFBCEB436FB2F57C0F704775
:1053C0004FEA036CBCF1004F08BF20F00100B2F5BA
:1053D0007C0F38BF70470BD582F0FF0212F5803F7B
:1053E000C8BF704700F1C040D8BF00F00040704710
:1053F00000F5000C5FEA4C0C48BF7047B0F1C040AC
:1054000000F073B890EA010F0CEAD11348BF42F4E0
:105410008072624538BF634504D280EA010000F023
:105420000040704710B500F01AF800BF8900013E37
:1054300000F007B800F009B85FEA410C5FEA1C6CA5
:1054400008D080EA010000F050B85FEA400C5FEA43
:105450001C6CF6D14FF00040A0F5800070470EF1B3
:10546000020E2EF0030E5EF8044B244204D44FEAE1
:105470004102B2F17F4F11D84FEA4003B3F17F4FA1
:105480000CD80ED14FEAD07CB2F17F4F0CEB4C0C14
:105490000CF1020C08BF4CEBD17C04E04FF0080C7F
:1054A00001E04FEAD17C0CEB4C0324FA03F404F046
:1054B0000704B4F1040C06D20EEB840CBDE81040D6
:1054C0004CF0010C6047DFE80CF0070802024FF0D7
:1054D0000040A0F5800010BD0846420018BFD2F180
:1054E000807288BF00F0004010BDFF2141EAD0501B
:1054F000C005704751EA000C00F113801CF5000F45
:1055000058BFBCF5000F01D48142704707D711F591
:10551000000F58BF10F5000F15D481427047894223
:1055200070471CF5000F04D5BCF5000FF7D5884275
:1055300070474FF0807C1CEB410F38BF1CEB400FD5
:1055400001D28842704780EA010081EA000180EAC6
:105550000100FFF7F8BE80F0004090EA010F7FF5F0
:105560002EAE81F0004100F008B8000090EA010F73
:1055700048BF81F000413FF522AE421A04D882F0C4
:105580000042A0EB020011444FEAD0524FF07F4C92
:105590001CEA410FA2EBD15318BF9CEA026F4AD01C
:1055A0004FF0004C4CEA00204CEA012121FA03FCA8
:1055B000B0EB0C0C0FD412F0FE0F36D05FEA4C00AB
:1055C0001DD5001240EBC25038BF70471CF03F0F92
:1055D00018BF70470BE0A2F101025FEA1C2040EB0C
:1055E000C25038BF70471CF07F0F18BF7047C3F11F
:1055F0002003994014BF401E20F00100704780082E
:105600004FEA122308BF7047B0FA80FCA2EB0C02ED
:10561000CCF1280C60FA0CF093EA122F04BF00EBD7
:10562000C25070474FEAC3707047130A5FEADC103C
:1056300008BF7047F6E79CEA026F04D010EA5C0FDF
:1056400008BF0020704710B5FFF709FF40DFF63EA6
:1056500081F0004070470000000000000000002FB3
:10566000000000000700070000147F147F140024CE
:105670002A7F2A12006264081323003649552250FB
:1056800000000503000000001C2241000000412230
:105690001C000014083E08140008083E080800001A
:1056A00000A0600000080808080800006060000012
:1056B000002010080402003E5149453E0000427F90
:1056C0004000004261514946002141454B310018DC
:1056D00014127F10002745454539003C4A4949309E
:1056E0000001710905030036494949360006494958
:1056F000291E000036360000000056360000000863
:10570000142241000014141414140000412214083F
:1057100000020151090600324959513E007C121124
:10572000127C007F49494936003E41414122007FB9
:105730004141221C007F49494941007F0909090173
:10574000003E4149497A007F0808087F0000417FF8
:105750004100002040413F01007F08142241007FAA
:1057600040404040007F020C027F007F0408107F11
:10577000003E4141413E007F09090906003E41517A
:10578000215E007F09192946004649494931000137
:10579000017F0101003F4040403F001F2040201F8B
:1057A000003F4038403F006314081463000708704E
:1057B000080700615149454300007F414100005501
:1057C0002A552A55000041417F00000402010204CD
:1057D00000404040404000000102040000205454BA
:1057E0005478007F4844443800384444442000380A
:1057F0004444487F00385454541800087E0901027C
:105800000018A4A4A47C007F080404780000447D50
:105810004000004080847D00007F1028440000008C
:10582000417F4000007C04180478007C0804047860
:1058300000384444443800FC24242418001824244C
:1058400018FC007C08040408004854545420000448
:105850003F444020003C4040207C001C2040201C55
:10586000003C4030403C004428102844001CA0A0CC
:10587000A07C004464544C441414141414141824CC
:105880005A5A241808080842241800000000000092
:1058900000000000000000000000000000F8000010
:1058A0000000000000333000000000100C06100C57
:1058B0000600000000000000000040C07840C078F2
:1058C0004000043F04043F040400007088FC0830DA
:1058D0000000001820FF211E0000F008F000E01872
:1058E000000000211C031E211E0000F0088870002B
:1058F00000001E2123241927211010160E0000007D
:1059000000000000000000000000000000E018049B
:105910000200000000071820400000020418E00008
:1059200000000040201807000000404080F0804048
:1059300040000202010F01020200000000F000001E
:1059400000000101011F0101010000000000000032
:10595000000080B0700000000000000000000000A7
:105960000000000101010101010100000000000030
:1059700000000030300000000000000000008060E7
:105980001804006018060100000000E0100808106C
:10599000E000000F102020100F00001010F8000091
:1059A00000000020203F2020000000700808088828
:1059B00070000030282422213000003008888848F8
:1059C00030000018202020110E000000C02010F828
:1059D000000000070424243F240000F808888808F9
:1059E00008000019212020110E0000E010888818FE
:1059F0000000000F112020110E0000380808C838E0
:105A000008000000003F00000000007088080888BF
:105A10007000001C222121221C0000E01008081048
:105A2000E0000000312222110F00000000C0C00081
:105A30000000000000303000000000000080000086
:105A40000000000080600000000000008040201086
:105A5000080000010204081020004040404040407F
:105A600040000404040404040400000810204080E2
:105A70000000002010080402010000704808080817
:105A8000F0000000003036010000C030C828E810E7
:105A9000E0000718272423140B000000C038E000A2
:105AA0000000203C23020227382008F888888870EC
:105AB0000000203F202020110E00C03008080808F8
:105AC0003800071820202010080008F808080810DF
:105AD000E000203F202020100F0008F88888E80808
